{"jsonrpc":"2.0","result":{"txid":"71963d6261a4b0e781d839a405cd57c2ae1101bb17a3c9d997517f6f136112fc","hash":"706651b8c94255d4ab50218ddb6ddbbd726b3ad6d293d53cf2c9e16f39750530","version":1,"size":446,"vsize":419,"weight":1676,"locktime":0,"vin":[{"coinbase":"03228a0e1d506f7765726564206279204c75786f722054656368060077049a67252efabe6d6d7d09d44cc08d5b0a02eb9f3efeed0d214cc76aabf7715eb8754a6acac598562110000000000000000000f6940000720000000000","txinwitness":["0000000000000000000000000000000000000000000000000000000000000000"],"sequence":4294967295}],"vout":[{"value":0.00000546,"n":0,"scriptPubKey":{"asm":"OP_HASH160 bf73ad4cf3a107812bad3deb310611bee49a3c79 OP_EQUAL","desc":"addr(3K9KZZPB8NRwZVP5wNKX4VYhnswrJxpgZ4)#t30ua08r","hex":"a914bf73ad4cf3a107812bad3deb310611bee49a3c7987","address":"3K9KZZPB8NRwZVP5wNKX4VYhnswrJxpgZ4","type":"scripthash"}},{"value":3.15528090,"n":1,"scriptPubKey":{"asm":"OP_HASH160 056adde53ebc396a1b3b678bb0d3a5c116ff430c OP_EQUAL","desc":"addr(32BfKjhByDSxx3BM5vUkQ3NQq9csZR6nt6)#qgnhjqsh","hex":"a914056adde53ebc396a1b3b678bb0d3a5c116ff430c87","address":"32BfKjhByDSxx3BM5vUkQ3NQq9csZR6nt6","type":"scripthash"}},{"value":0.00000000,"n":2,"scriptPubKey":{"asm":"OP_RETURN aa21a9eda07c26de296a01028a0e82082fe919f82aff4fbd450b9113650039fba6ea4721","desc":"raw(6a24aa21a9eda07c26de296a01028a0e82082fe919f82aff4fbd450b9113650039fba6ea4721)#w6ux8sr6","hex":"6a24aa21a9eda07c26de296a01028a0e82082fe919f82aff4fbd450b9113650039fba6ea4721","type":"nulldata"}},{"value":0.00000000,"n":3,"scriptPubKey":{"asm":"OP_RETURN 434f524501a21cbd3caa4fe89bccd1d716c92ce4533e4d4733f459cc4ca322d298304ff163b2a360d756c5db84","desc":"raw(6a2d434f524501a21cbd3caa4fe89bccd1d716c92ce4533e4d4733f459cc4ca322d298304ff163b2a360d756c5db84)#nnnlquj0","hex":"6a2d434f524501a21cbd3caa4fe89bccd1d716c92ce4533e4d4733f459cc4ca322d298304ff163b2a360d756c5db84","type":"nulldata"}},{"value":0.00000000,"n":4,"scriptPubKey":{"asm":"OP_RETURN 73797335a57a459149473541ceea7ecf79103fa252f27e1f14081b98995c6aa92559a05a602200","desc":"raw(6a2773797335a57a459149473541ceea7ecf79103fa252f27e1f14081b98995c6aa92559a05a602200)#lh68jlq9","hex":"6a2773797335a57a459149473541ceea7ecf79103fa252f27e1f14081b98995c6aa92559a05a602200","type":"nulldata"}},{"value":0.00000000,"n":5,"scriptPubKey":{"asm":"OP_RETURN 52534b424c4f434b3a42c446312df02db208d4d769eeae691de04798ffd191240e0b05b51800882e11","desc":"raw(6a2952534b424c4f434b3a42c446312df02db208d4d769eeae691de04798ffd191240e0b05b51800882e11)#s0448szf","hex":"6a2952534b424c4f434b3a42c446312df02db208d4d769eeae691de04798ffd191240e0b05b51800882e11","type":"nulldata"}}],"hex":"010000000001010000000000000000000000000000000000000000000000000000000000000000ffffffff5a03228a0e1d506f7765726564206279204c75786f722054656368060077049a67252efabe6d6d7d09d44cc08d5b0a02eb9f3efeed0d214cc76aabf7715eb8754a6acac598562110000000000000000000f6940000720000000000ffffffff06220200000000000017a914bf73ad4cf3a107812bad3deb310611bee49a3c79879a93ce120000000017a914056adde53ebc396a1b3b678bb0d3a5c116ff430c870000000000000000266a24aa21a9eda07c26de296a01028a0e82082fe919f82aff4fbd450b9113650039fba6ea472100000000000000002f6a2d434f524501a21cbd3caa4fe89bccd1d716c92ce4533e4d4733f459cc4ca322d298304ff163b2a360d756c5db840000000000000000296a2773797335a57a459149473541ceea7ecf79103fa252f27e1f14081b98995c6aa92559a05a60220000000000000000002b6a2952534b424c4f434b3a42c446312df02db208d4d769eeae691de04798ffd191240e0b05b51800882e110120000000000000000000000000000000000000000000000000000000000000000000000000","blockhash":"000000000000000000002c67293fef41a3dbf443d3eb6ed106a4e2f37c09fc86","confirmations":1,"time":1780934093,"blocktime":1780934093},"id":1}
