{"result":{"txid":"fa5d3886240eb61033f5f73d653e85a4371ad81a9e0f04debd0b33b25a8ea87d","hash":"801ec20c9ffeb607792a5d8fbb3633fd1eeac05c71e072a3e914020bc6d8fa6f","version":2,"size":379,"vsize":352,"weight":1408,"locktime":0,"vin":[{"coinbase":"0329870e050fff78bf002f466f756e6472792055534120506f6f6c202364726f70676f6c642ffabe6d6d8a072a2f3c17f0a704a170c60bc3389617bd3c0e77d30da43f113f921f2585930100000000000000256c821ada94010000000000","txinwitness":["0000000000000000000000000000000000000000000000000000000000000000"],"sequence":4294967295}],"vout":[{"value":3.16272944,"n":0,"scriptPubKey":{"asm":"0 7086320071974eef5e72eaa01dd9096e10c0383483855ea6b344259c244f73c2","desc":"addr(bc1qwzrryqr3ja8w7hnja2spmkgfdcgvqwp5swz4af4ngsjecfz0w0pqud7k38)#y9upg3rz","hex":"00207086320071974eef5e72eaa01dd9096e10c0383483855ea6b344259c244f73c2","address":"bc1qwzrryqr3ja8w7hnja2spmkgfdcgvqwp5swz4af4ngsjecfz0w0pqud7k38","type":"witness_v0_scripthash"}},{"value":0.0,"n":1,"scriptPubKey":{"asm":"OP_RETURN aa21a9ed6b2afd0fb4f5028173326a0398536540ec83a9788d0070600a4f5294aaec2bf5","desc":"raw(6a24aa21a9ed6b2afd0fb4f5028173326a0398536540ec83a9788d0070600a4f5294aaec2bf5)#76ft09me","hex":"6a24aa21a9ed6b2afd0fb4f5028173326a0398536540ec83a9788d0070600a4f5294aaec2bf5","type":"nulldata"}},{"value":0.0,"n":2,"scriptPubKey":{"asm":"OP_RETURN 434f524501ebbaf365b0d5fa072e2b2429db23696291f2c038e6d18fda214e5b9f350ffc7b6cf3058b9026e765","desc":"raw(6a2d434f524501ebbaf365b0d5fa072e2b2429db23696291f2c038e6d18fda214e5b9f350ffc7b6cf3058b9026e765)#remnaws3","hex":"6a2d434f524501ebbaf365b0d5fa072e2b2429db23696291f2c038e6d18fda214e5b9f350ffc7b6cf3058b9026e765","type":"nulldata"}},{"value":0.0,"n":3,"scriptPubKey":{"asm":"OP_RETURN 52534b424c4f434b3ac55719fccf8f3e6807b8474bf966ca9f799cb29274f9617ecd0a460c0087d978","desc":"raw(6a2952534b424c4f434b3ac55719fccf8f3e6807b8474bf966ca9f799cb29274f9617ecd0a460c0087d978)#uwy090m0","hex":"6a2952534b424c4f434b3ac55719fccf8f3e6807b8474bf966ca9f799cb29274f9617ecd0a460c0087d978","type":"nulldata"}}],"hex":"020000000001010000000000000000000000000000000000000000000000000000000000000000ffffffff5e0329870e050fff78bf002f466f756e6472792055534120506f6f6c202364726f70676f6c642ffabe6d6d8a072a2f3c17f0a704a170c60bc3389617bd3c0e77d30da43f113f921f2585930100000000000000256c821ada94010000000000ffffffff0430f1d912000000002200207086320071974eef5e72eaa01dd9096e10c0383483855ea6b344259c244f73c20000000000000000266a24aa21a9ed6b2afd0fb4f5028173326a0398536540ec83a9788d0070600a4f5294aaec2bf500000000000000002f6a2d434f524501ebbaf365b0d5fa072e2b2429db23696291f2c038e6d18fda214e5b9f350ffc7b6cf3058b9026e76500000000000000002b6a2952534b424c4f434b3ac55719fccf8f3e6807b8474bf966ca9f799cb29274f9617ecd0a460c0087d9780120000000000000000000000000000000000000000000000000000000000000000000000000","blockhash":"00000000000000000001bc89bf889a3f7cf3125d43a623be6cefb23d274eb617","confirmations":1,"time":1780399992,"blocktime":1780399992},"error":null,"id":1}