{"id":1,"jsonrpc":"2.0","result":{"hash":"bff61719e49cdf7d073cbf2e31716647f0f17644fda9a810e5504dfca0a22837","confirmations":1,"strippedsize":1613,"size":1613,"weight":6452,"height":6232050,"version":6422788,"versionHex":"00620104","merkleroot":"80883c2badbbe57afde3096ee750551c5df8158aa5ab16f06b8f557777445e2f","tx":["29eaf5a7e68f6e3a8e7592959effc71f9debb207e9d34ef35559b274be0368ff","cbcef7ae4462e73a031fb50d13e3e99b17de885ae7f43a581ff63aed871bf182","3202a82b37da18ea4260ddf77c698fc8921dff27513719dabd17e6f72ba618d7"],"time":1780401262,"mediantime":1780400953,"nonce":0,"bits":"1978dba2","difficulty":35536777.60893757,"chainwork":"000000000000000000000000000000000000000000002f6a91019c3a73f6f709","auxpow":{"tx":{"hex":"01000000010000000000000000000000000000000000000000000000000000000000000000ffffffff640315942f2cfabe6d6dd69411ea4033f60575919087b00ce0c42400b5846d7fe2d4e6896b1bd68fbede20000000f09f909f092f4632506f6f6c2f6100000000000000000000000000000000000000000000000000000000000000000000000500e6a80100e6a80100025a5a4225000000001976a914dfd88711bf5d20f2ac7049ba28d053a89186ce9288ac0000000000000000266a24aa21a9ed7dcd42df5e87d6591914b84f5a6fcf53751c343cddabe353a2631d387ad1c4289ee8c240","txid":"58df6299c5b744c72c1eb202fd353537cd28c5b76a4b2f6382aaf0f589330d64","hash":"58df6299c5b744c72c1eb202fd353537cd28c5b76a4b2f6382aaf0f589330d64","size":232,"vsize":232,"version":1,"locktime":1086515358,"vin":[{"coinbase":"0315942f2cfabe6d6dd69411ea4033f60575919087b00ce0c42400b5846d7fe2d4e6896b1bd68fbede20000000f09f909f092f4632506f6f6c2f6100000000000000000000000000000000000000000000000000000000000000000000000500e6a80100","sequence":108774}],"vout":[{"value":6.25105498,"n":0,"scriptPubKey":{"asm":"OP_DUP OP_HASH160 dfd88711bf5d20f2ac7049ba28d053a89186ce92 OP_EQUALVERIFY OP_CHECKSIG","hex":"76a914dfd88711bf5d20f2ac7049ba28d053a89186ce9288ac","reqSigs":1,"type":"pubkeyhash","addresses":["DRYgce1xTts43Q1Y9La3ZJgxzfo9ge2JuG"]}},{"value":0.0,"n":1,"scriptPubKey":{"asm":"OP_RETURN aa21a9ed7dcd42df5e87d6591914b84f5a6fcf53751c343cddabe353a2631d387ad1c428","hex":"6a24aa21a9ed7dcd42df5e87d6591914b84f5a6fcf53751c343cddabe353a2631d387ad1c428","type":"nulldata"}}],"blockhash":"e410de457f2272abfd2ef7e828a211200643cf7b6cae977b80a36ee6138a447f"},"index":0,"chainindex":8,"merklebranch":["50f693472f990ae74da272e5eacc7f0eeb59ad912ac320b96ba349269e4ebabd","f1dc6ae07a42d2398bb536a83adb3a409eac0d40c2fcde3433117c98c11cfbd0","ef917ae05ddd3777e7920dfd3b0b49ccba7896b998140d881935a680e7e78abd","7fa4db0a027b18ff0416b452c1e9e3772a97b1abbab3af7ccb3bdcc4b20c4c76","306e1170c780ae5262c87b1fd97440e45dff262ce3cfa8738b7556bddcee29b5","a8567a72b8aab61dda0d967de9a8bb358c78d20e7764123ac05bd777523c374a"],"chainmerklebranch":["0000000000000000000000000000000000000000000000000000000000000009","c8a756a6441def5a7734cba02852a3c8d97545452183dd00a207f42d3f1b0b71","2d97239f0980adcedb5cfa2ce5b8cd55909f64858ddade60f3e495c66e49fcce","a82cf61130e394b1dc75f81aa7c4d0ae71e6159eee9b52889aa5201d91868117","f40b48c689ca37ea6451d4e15df494492c7699707b9a991030ff3311f3ea5f82"],"parentblock":"140000209b5f32be6ebd0fe5ef50f70cffa5471bfe01477fab5de4f6974aca73f8bc1caedb120a1baceb96d8cca9ac25e9311a96bd2794c3468d77646d5851513bd8a4c56ec41e6a59f129195e2e6465"},"previousblockhash":"f67ef6ecd30389a5478bbc16608e9093400abde15a0dfa32ea5a188ddd916bda"}}