{"id":1,"jsonrpc":"2.0","result":{"hex":"01000000010000000000000000000000000000000000000000000000000000000000000000ffffffff3503f2175f0fe4b883e5bda9e7a59ee4bb99e9b1bc205b323032362d30362d30325431313a35343a32322e3530393334323835335a5dffffffff014073b7dde80000001976a914212da786d4574d8401d73ac295f34a9ebd98386b88ac00000000","txid":"29eaf5a7e68f6e3a8e7592959effc71f9debb207e9d34ef35559b274be0368ff","hash":"29eaf5a7e68f6e3a8e7592959effc71f9debb207e9d34ef35559b274be0368ff","size":138,"vsize":138,"version":1,"locktime":0,"vin":[{"coinbase":"03f2175f0fe4b883e5bda9e7a59ee4bb99e9b1bc205b323032362d30362d30325431313a35343a32322e3530393334323835335a5d","sequence":4294967295}],"vout":[{"value":10001.522,"n":0,"scriptPubKey":{"asm":"OP_DUP OP_HASH160 212da786d4574d8401d73ac295f34a9ebd98386b OP_EQUALVERIFY OP_CHECKSIG","hex":"76a914212da786d4574d8401d73ac295f34a9ebd98386b88ac","reqSigs":1,"type":"pubkeyhash","addresses":["D8AXXiGEZeZnMKTKnC9AWB3YUU4jfMAmYU"]}}],"blockhash":"bff61719e49cdf7d073cbf2e31716647f0f17644fda9a810e5504dfca0a22837","confirmations":1,"time":1780401262,"blocktime":1780401262}}