{"result":{"hex":"01000000010000000000000000000000000000000000000000000000000000000000000000ffffffff3503ae385f0fe4b883e5bda9e7a59ee4bb99e9b1bc205b323032362d30362d30385431353a35383a34342e3033303638313339345a5dffffffff0181dad0dfe80000001976a914212da786d4574d8401d73ac295f34a9ebd98386b88ac00000000","txid":"defbc5a1ef031b74f1c6880fe14df0916f8bd737148b68d5ddeb3bfc39b2fa24","hash":"defbc5a1ef031b74f1c6880fe14df0916f8bd737148b68d5ddeb3bfc39b2fa24","size":138,"vsize":138,"version":1,"locktime":0,"vin":[{"coinbase":"03ae385f0fe4b883e5bda9e7a59ee4bb99e9b1bc205b323032362d30362d30385431353a35383a34342e3033303638313339345a5d","sequence":4294967295}],"vout":[{"value":10001.87419265,"n":0,"scriptPubKey":{"asm":"OP_DUP OP_HASH160 212da786d4574d8401d73ac295f34a9ebd98386b OP_EQUALVERIFY OP_CHECKSIG","hex":"76a914212da786d4574d8401d73ac295f34a9ebd98386b88ac","reqSigs":1,"type":"pubkeyhash","addresses":["D8AXXiGEZeZnMKTKnC9AWB3YUU4jfMAmYU"]}}],"blockhash":"30107c8992bb48c4ee25b9b86f79964b7bca07a639c9faf904f732fa4644fda0","confirmations":29,"time":1780934323,"blocktime":1780934323},"id":1,"jsonrpc":"2.0"}