{"result":{"txid":"38326bca3124d74d4e361107737c7b1146a7afb4a0e925ca7534110ede6d96cc","hash":"8ecd88130883edfd6f603595f739576ce0fb48520b3b5adb29bbc2d6c79974ed","version":1,"size":268,"vsize":241,"weight":964,"locktime":1167674725,"vin":[{"ismweb":false,"coinbase":"03fba12f2cfabe6d6d95e22e1a8c9804fd824db28741c003a5506be3a2f70f4582d162bd64f3fbd68520000000f09f909f092f4632506f6f6c2f62000000000000000000000000000000000000000000000000000000000000000000000005004e7cd004","txinwitness":["0000000000000000000000000000000000000000000000000000000000000000"],"sequence":0}],"vout":[{"ismweb":false,"value":6.27537737,"n":0,"scriptPubKey":{"asm":"OP_DUP OP_HASH160 dfd88711bf5d20f2ac7049ba28d053a89186ce92 OP_EQUALVERIFY OP_CHECKSIG","hex":"76a914dfd88711bf5d20f2ac7049ba28d053a89186ce9288ac","reqSigs":1,"type":"pubkeyhash","addresses":["LfdYLbP9F9CpmCX6atZnHZb8KkS8T6x4DK"]}},{"ismweb":false,"value":0.00000000,"n":1,"scriptPubKey":{"asm":"OP_RETURN aa21a9ed17f2e479671f28eea923c2d80dcaf4fd63a9bf42dc2a7508e3b4e7e462690ec4","hex":"6a24aa21a9ed17f2e479671f28eea923c2d80dcaf4fd63a9bf42dc2a7508e3b4e7e462690ec4","type":"nulldata"}}],"hex":"010000000001010000000000000000000000000000000000000000000000000000000000000000ffffffff6403fba12f2cfabe6d6d95e22e1a8c9804fd824db28741c003a5506be3a2f70f4582d162bd64f3fbd68520000000f09f909f092f4632506f6f6c2f62000000000000000000000000000000000000000000000000000000000000000000000005004e7cd004000000000249776725000000001976a914dfd88711bf5d20f2ac7049ba28d053a89186ce9288ac0000000000000000266a24aa21a9ed17f2e479671f28eea923c2d80dcaf4fd63a9bf42dc2a7508e3b4e7e462690ec401200000000000000000000000000000000000000000000000000000000000000000654d9945","blockhash":"50bf6a5c4e040601b1e1808b014b74b2b90492a94887a6cbcf07073f49c8ccdf","confirmations":17,"time":1780934139,"blocktime":1780934139},"id":1,"jsonrpc":"2.0"}