{"result":{"txid":"58df6299c5b744c72c1eb202fd353537cd28c5b76a4b2f6382aaf0f589330d64","hash":"2f16cd41788deca755e89d9f020070c8feb2155fe6b308830892ece707f6d899","version":1,"size":268,"vsize":241,"weight":964,"locktime":1086515358,"vin":[{"ismweb":false,"coinbase":"0315942f2cfabe6d6dd69411ea4033f60575919087b00ce0c42400b5846d7fe2d4e6896b1bd68fbede20000000f09f909f092f4632506f6f6c2f6100000000000000000000000000000000000000000000000000000000000000000000000500e6a80100","txinwitness":["0000000000000000000000000000000000000000000000000000000000000000"],"sequence":108774}],"vout":[{"ismweb":false,"value":6.25105498,"n":0,"scriptPubKey":{"asm":"OP_DUP OP_HASH160 dfd88711bf5d20f2ac7049ba28d053a89186ce92 OP_EQUALVERIFY OP_CHECKSIG","hex":"76a914dfd88711bf5d20f2ac7049ba28d053a89186ce9288ac","reqSigs":1,"type":"pubkeyhash","addresses":["LfdYLbP9F9CpmCX6atZnHZb8KkS8T6x4DK"]}},{"ismweb":false,"value":0.0,"n":1,"scriptPubKey":{"asm":"OP_RETURN aa21a9ed7dcd42df5e87d6591914b84f5a6fcf53751c343cddabe353a2631d387ad1c428","hex":"6a24aa21a9ed7dcd42df5e87d6591914b84f5a6fcf53751c343cddabe353a2631d387ad1c428","type":"nulldata"}}],"hex":"010000000001010000000000000000000000000000000000000000000000000000000000000000ffffffff640315942f2cfabe6d6dd69411ea4033f60575919087b00ce0c42400b5846d7fe2d4e6896b1bd68fbede20000000f09f909f092f4632506f6f6c2f6100000000000000000000000000000000000000000000000000000000000000000000000500e6a80100e6a80100025a5a4225000000001976a914dfd88711bf5d20f2ac7049ba28d053a89186ce9288ac0000000000000000266a24aa21a9ed7dcd42df5e87d6591914b84f5a6fcf53751c343cddabe353a2631d387ad1c428012000000000000000000000000000000000000000000000000000000000000000009ee8c240","blockhash":"e410de457f2272abfd2ef7e828a211200643cf7b6cae977b80a36ee6138a447f","confirmations":2,"time":1780401262,"blocktime":1780401262},"id":1,"jsonrpc":"1.0","error":null}