[{"txid":"91d0190ed75ddfdc506e597e7df692d985f360119c53e2347561430fa2c4c7ae","hash":"91d0190ed75ddfdc506e597e7df692d985f360119c53e2347561430fa2c4c7ae","version":1,"size":173,"locktime":0,"vin":[{"coinbase":"0349e30d2f6263682e736f6c6f2d706f6f6c2e6f72672f","sequence":4294967295}],"vout":[{"value":0.03136058,"n":0,"scriptPubKey":{"asm":"OP_DUP OP_HASH160 db54236f397b66c05dbf0645435316f1f12b4079 OP_EQUALVERIFY OP_CHECKSIG","hex":"76a914db54236f397b66c05dbf0645435316f1f12b407988ac","reqSigs":1,"type":"pubkeyhash","addresses":["bitcoincash:qrd4ggm089akdszahury2s6nzmclz26q0ypr445mmu"]}},{"value":0,"n":1,"scriptPubKey":{"asm":"OP_RETURN 0c788e68edc13e0ae74693013617b44fbbfe1ee9","hex":"6a140c788e68edc13e0ae74693013617b44fbbfe1ee9","type":"nulldata"}},{"value":3.10469679,"n":2,"scriptPubKey":{"asm":"OP_DUP OP_HASH160 c1222f502d8d17b2cba75ca2a8d4ba9a0b4a0e2a OP_EQUALVERIFY OP_CHECKSIG","hex":"76a914c1222f502d8d17b2cba75ca2a8d4ba9a0b4a0e2a88ac","reqSigs":1,"type":"pubkeyhash","addresses":["bitcoincash:qrqjyt6s9kx30vkt5aw292x5h2dqkjsw9gx5wlmh26"]}}],"hex":"01000000010000000000000000000000000000000000000000000000000000000000000000ffffffff170349e30d2f6263682e736f6c6f2d706f6f6c2e6f72672fffffffff033ada2f00000000001976a914db54236f397b66c05dbf0645435316f1f12b407988ac0000000000000000166a140c788e68edc13e0ae74693013617b44fbbfe1ee92f648112000000001976a914c1222f502d8d17b2cba75ca2a8d4ba9a0b4a0e2a88ac00000000","blockhash":"0000000000000000004bf64a7666edee9b1a702db9bdc6e09b2f26f2b87ecb8e","confirmations":44324,"time":1754311154,"blocktime":1754311154,"blockheight":910153}]