{"result":{"txid":"f2e18f025e0aa76f648c0606346f307915a8e752ef7453f49eb0bc4f7a1d6119","hash":"f2e18f025e0aa76f648c0606346f307915a8e752ef7453f49eb0bc4f7a1d6119","version":1,"size":108,"locktime":0,"vin":[{"coinbase":"031c8d0e2f4a434243482f2bcc6169093c098e1aa68f00","sequence":4294967295}],"vout":[{"value":3.13011666,"n":0,"scriptPubKey":{"asm":"OP_DUP OP_HASH160 7a295c32cada951fcc22590fa107d1f6d042a153 OP_EQUALVERIFY OP_CHECKSIG","hex":"76a9147a295c32cada951fcc22590fa107d1f6d042a15388ac","reqSigs":1,"type":"pubkeyhash","addresses":["bitcoincash:qpazjhpjetdf287vyfvslgg868mdqs4p2v0583dq6t"]}}],"hex":"01000000010000000000000000000000000000000000000000000000000000000000000000ffffffff17031c8d0e2f4a434243482f2bcc6169093c098e1aa68f00ffffffff01d22da812000000001976a9147a295c32cada951fcc22590fa107d1f6d042a15388ac00000000","blockhash":"0000000000000000011561258ff452732320696da279ebeabfc92a5455c1d9de","confirmations":1,"time":1780401077,"blocktime":1780401077},"id":1,"jsonrpc":"1.0","error":null}