{"result":{"txid":"72cb0fab0559e227ea9af5bdb6e1710c000b076428e7c6be7d9e965988b9a1f0","hash":"72cb0fab0559e227ea9af5bdb6e1710c000b076428e7c6be7d9e965988b9a1f0","version":1,"size":173,"locktime":0,"vin":[{"coinbase":"036a900e2f6263682e736f6c6f2d706f6f6c2e6f72672f","sequence":4294967295}],"vout":[{"value":0.03126086,"n":0,"scriptPubKey":{"asm":"OP_DUP OP_HASH160 db54236f397b66c05dbf0645435316f1f12b4079 OP_EQUALVERIFY OP_CHECKSIG","hex":"76a914db54236f397b66c05dbf0645435316f1f12b407988ac","reqSigs":1,"type":"pubkeyhash","addresses":["bitcoincash:qrd4ggm089akdszahury2s6nzmclz26q0ypr445mmu"]}},{"value":0.00000000,"n":1,"scriptPubKey":{"asm":"OP_RETURN 6155206a2c00e7bb00000000d087640241584830","hex":"6a146155206a2c00e7bb00000000d087640241584830","type":"nulldata"}},{"value":3.09482444,"n":2,"scriptPubKey":{"asm":"OP_DUP OP_HASH160 1b2a0a7a0cb8289df7ddd60d6ac7aca171cd45f9 OP_EQUALVERIFY OP_CHECKSIG","hex":"76a9141b2a0a7a0cb8289df7ddd60d6ac7aca171cd45f988ac","reqSigs":1,"type":"pubkeyhash","addresses":["bitcoincash:qqdj5zn6pjuz380hmhtq66k84jshrn29ly0etn6mqk"]}}],"hex":"01000000010000000000000000000000000000000000000000000000000000000000000000ffffffff17036a900e2f6263682e736f6c6f2d706f6f6c2e6f72672fffffffff0346b32f00000000001976a914db54236f397b66c05dbf0645435316f1f12b407988ac0000000000000000166a146155206a2c00e7bb00000000d087640241584830cc537212000000001976a9141b2a0a7a0cb8289df7ddd60d6ac7aca171cd45f988ac00000000","blockhash":"00000000000000000101e8cdd6b5854cdb8283fa8a81bd18591f1488afd912e8","confirmations":3,"time":1780934227,"blocktime":1780934227},"id":1,"jsonrpc":"2.0"}